{
  "_format": "hh-sol-artifact-1",
  "contractName": "KonomiToken",
  "sourceName": "contracts/KonomiToken.sol",
  "abi": [
    {
      "inputs": [],
      "stateMutability": "nonpayable",
      "type": "constructor"
    },
    {
      "anonymous": false,
      "inputs": [
        {
          "indexed": true,
          "internalType": "address",
          "name": "_owner",
          "type": "address"
        },
        {
          "indexed": true,
          "internalType": "address",
          "name": "_spender",
          "type": "address"
        },
        {
          "indexed": false,
          "internalType": "uint256",
          "name": "_value",
          "type": "uint256"
        }
      ],
      "name": "Approval",
      "type": "event"
    },
    {
      "anonymous": false,
      "inputs": [
        {
          "indexed": true,
          "internalType": "address",
          "name": "_from",
          "type": "address"
        },
        {
          "indexed": true,
          "internalType": "address",
          "name": "_to",
          "type": "address"
        },
        {
          "indexed": false,
          "internalType": "uint256",
          "name": "_value",
          "type": "uint256"
        }
      ],
      "name": "Transfer",
      "type": "event"
    },
    {
      "inputs": [],
      "name": "_name",
      "outputs": [
        {
          "internalType": "string",
          "name": "",
          "type": "string"
        }
      ],
      "stateMutability": "view",
      "type": "function"
    },
    {
      "inputs": [],
      "name": "_symbol",
      "outputs": [
        {
          "internalType": "string",
          "name": "",
          "type": "string"
        }
      ],
      "stateMutability": "view",
      "type": "function"
    },
    {
      "inputs": [],
      "name": "_totalSupply",
      "outputs": [
        {
          "internalType": "uint256",
          "name": "",
          "type": "uint256"
        }
      ],
      "stateMutability": "view",
      "type": "function"
    },
    {
      "inputs": [],
      "name": "name",
      "outputs": [
        {
          "internalType": "string",
          "name": "",
          "type": "string"
        }
      ],
      "stateMutability": "view",
      "type": "function"
    },
    {
      "inputs": [
        {
          "internalType": "uint256",
          "name": "a",
          "type": "uint256"
        },
        {
          "internalType": "uint256",
          "name": "b",
          "type": "uint256"
        }
      ],
      "name": "safeAdd",
      "outputs": [
        {
          "internalType": "uint256",
          "name": "c",
          "type": "uint256"
        }
      ],
      "stateMutability": "pure",
      "type": "function"
    },
    {
      "inputs": [
        {
          "internalType": "uint256",
          "name": "a",
          "type": "uint256"
        },
        {
          "internalType": "uint256",
          "name": "b",
          "type": "uint256"
        }
      ],
      "name": "safeDiv",
      "outputs": [
        {
          "internalType": "uint256",
          "name": "c",
          "type": "uint256"
        }
      ],
      "stateMutability": "pure",
      "type": "function"
    },
    {
      "inputs": [
        {
          "internalType": "uint256",
          "name": "a",
          "type": "uint256"
        },
        {
          "internalType": "uint256",
          "name": "b",
          "type": "uint256"
        }
      ],
      "name": "safeMul",
      "outputs": [
        {
          "internalType": "uint256",
          "name": "c",
          "type": "uint256"
        }
      ],
      "stateMutability": "pure",
      "type": "function"
    },
    {
      "inputs": [
        {
          "internalType": "uint256",
          "name": "a",
          "type": "uint256"
        },
        {
          "internalType": "uint256",
          "name": "b",
          "type": "uint256"
        }
      ],
      "name": "safeSub",
      "outputs": [
        {
          "internalType": "uint256",
          "name": "c",
          "type": "uint256"
        }
      ],
      "stateMutability": "pure",
      "type": "function"
    },
    {
      "inputs": [],
      "name": "symbol",
      "outputs": [
        {
          "internalType": "string",
          "name": "",
          "type": "string"
        }
      ],
      "stateMutability": "view",
      "type": "function"
    },
    {
      "inputs": [
        {
          "internalType": "address",
          "name": "_to",
          "type": "address"
        },
        {
          "internalType": "uint256",
          "name": "_value",
          "type": "uint256"
        }
      ],
      "name": "transfer",
      "outputs": [
        {
          "internalType": "bool",
          "name": "success",
          "type": "bool"
        }
      ],
      "stateMutability": "nonpayable",
      "type": "function"
    }
  ],
  "bytecode": "0x60806040523480156200001157600080fd5b506040518060400160405280600381526020017f4b4e540000000000000000000000000000000000000000000000000000000000815250600090805190602001906200005f92919062000104565b506040518060400160405280601481526020017f4b6f6e6f6d69204e6574776f726b20546f6b656e00000000000000000000000081525060019080519060200190620000ad92919062000104565b50620f4240600281905550600254600360003373ffffffffffffffffffffffffffffffffffffffff1673ffffffffffffffffffffffffffffffffffffffff1681526020019081526020016000208190555062000219565b8280546200011290620001b4565b90600052602060002090601f01602090048101928262000136576000855562000182565b82601f106200015157805160ff191683800117855562000182565b8280016001018555821562000182579182015b828111156200018157825182559160200191906001019062000164565b5b50905062000191919062000195565b5090565b5b80821115620001b057600081600090555060010162000196565b5090565b60006002820490506001821680620001cd57607f821691505b60208210811415620001e457620001e3620001ea565b5b50919050565b7f4e487b7100000000000000000000000000000000000000000000000000000000600052602260045260246000fd5b610bc480620002296000396000f3fe608060405234801561001057600080fd5b506004361061009e5760003560e01c8063b09f126611610066578063b09f12661461015d578063b5931f7c1461017b578063d05c78da146101ab578063d28d8852146101db578063e6cb9013146101f95761009e565b806306fdde03146100a35780633eaaf86b146100c157806395d89b41146100df578063a293d1e8146100fd578063a9059cbb1461012d575b600080fd5b6100ab610229565b6040516100b89190610859565b60405180910390f35b6100c96102bb565b6040516100d6919061089b565b60405180910390f35b6100e76102c1565b6040516100f49190610859565b60405180910390f35b61011760048036038101906101129190610784565b610353565b604051610124919061089b565b60405180910390f35b61014760048036038101906101429190610744565b610376565b604051610154919061083e565b60405180910390f35b610165610581565b6040516101729190610859565b60405180910390f35b61019560048036038101906101909190610784565b61060f565b6040516101a2919061089b565b60405180910390f35b6101c560048036038101906101c09190610784565b610631565b6040516101d2919061089b565b60405180910390f35b6101e3610669565b6040516101f09190610859565b60405180910390f35b610213600480360381019061020e9190610784565b6106f7565b604051610220919061089b565b60405180910390f35b60606001805461023890610a62565b80601f016020809104026020016040519081016040528092919081815260200182805461026490610a62565b80156102b15780601f10610286576101008083540402835291602001916102b1565b820191906000526020600020905b81548152906001019060200180831161029457829003601f168201915b5050505050905090565b60025481565b6060600080546102d090610a62565b80601f01602080910402602001604051908101604052809291908181526020018280546102fc90610a62565b80156103495780601f1061031e57610100808354040283529160200191610349565b820191906000526020600020905b81548152906001019060200180831161032c57829003601f168201915b5050505050905090565b60008282111561036257600080fd5b818361036e91906109b3565b905092915050565b600081600360003373ffffffffffffffffffffffffffffffffffffffff1673ffffffffffffffffffffffffffffffffffffffff1681526020019081526020016000205410156103fa576040517f08c379a00000000000000000000000000000000000000000000000000000000081526004016103f19061087b565b60405180910390fd5b610443600360003373ffffffffffffffffffffffffffffffffffffffff1673ffffffffffffffffffffffffffffffffffffffff1681526020019081526020016000205483610353565b600360003373ffffffffffffffffffffffffffffffffffffffff1673ffffffffffffffffffffffffffffffffffffffff168152602001908152602001600020819055506104cf600360008573ffffffffffffffffffffffffffffffffffffffff1673ffffffffffffffffffffffffffffffffffffffff16815260200190815260200160002054836106f7565b600360008573ffffffffffffffffffffffffffffffffffffffff1673ffffffffffffffffffffffffffffffffffffffff168152602001908152602001600020819055508273ffffffffffffffffffffffffffffffffffffffff163373ffffffffffffffffffffffffffffffffffffffff167fddf252ad1be2c89b69c2b068fc378daa952ba7f163c4a11628f55a4df523b3ef8460405161056f919061089b565b60405180910390a36001905092915050565b6000805461058e90610a62565b80601f01602080910402602001604051908101604052809291908181526020018280546105ba90610a62565b80156106075780601f106105dc57610100808354040283529160200191610607565b820191906000526020600020905b8154815290600101906020018083116105ea57829003601f168201915b505050505081565b600080821161061d57600080fd5b81836106299190610928565b905092915050565b6000818361063f9190610959565b9050600083148061065a57508183826106589190610928565b145b61066357600080fd5b92915050565b6001805461067690610a62565b80601f01602080910402602001604051908101604052809291908181526020018280546106a290610a62565b80156106ef5780601f106106c4576101008083540402835291602001916106ef565b820191906000526020600020905b8154815290600101906020018083116106d257829003601f168201915b505050505081565b6000818361070591906108d2565b90508281101561071457600080fd5b92915050565b60008135905061072981610b60565b92915050565b60008135905061073e81610b77565b92915050565b6000806040838503121561075b5761075a610b21565b5b60006107698582860161071a565b925050602061077a8582860161072f565b9150509250929050565b6000806040838503121561079b5761079a610b21565b5b60006107a98582860161072f565b92505060206107ba8582860161072f565b9150509250929050565b6107cd816109f9565b82525050565b60006107de826108b6565b6107e881856108c1565b93506107f8818560208601610a2f565b61080181610b26565b840191505092915050565b60006108196011836108c1565b915061082482610b37565b602082019050919050565b61083881610a25565b82525050565b600060208201905061085360008301846107c4565b92915050565b6000602082019050818103600083015261087381846107d3565b905092915050565b600060208201905081810360008301526108948161080c565b9050919050565b60006020820190506108b0600083018461082f565b92915050565b600081519050919050565b600082825260208201905092915050565b60006108dd82610a25565b91506108e883610a25565b9250827fffffffffffffffffffffffffffffffffffffffffffffffffffffffffffffffff0382111561091d5761091c610a94565b5b828201905092915050565b600061093382610a25565b915061093e83610a25565b92508261094e5761094d610ac3565b5b828204905092915050565b600061096482610a25565b915061096f83610a25565b9250817fffffffffffffffffffffffffffffffffffffffffffffffffffffffffffffffff04831182151516156109a8576109a7610a94565b5b828202905092915050565b60006109be82610a25565b91506109c983610a25565b9250828210156109dc576109db610a94565b5b828203905092915050565b60006109f282610a05565b9050919050565b60008115159050919050565b600073ffffffffffffffffffffffffffffffffffffffff82169050919050565b6000819050919050565b60005b83811015610a4d578082015181840152602081019050610a32565b83811115610a5c576000848401525b50505050565b60006002820490506001821680610a7a57607f821691505b60208210811415610a8e57610a8d610af2565b5b50919050565b7f4e487b7100000000000000000000000000000000000000000000000000000000600052601160045260246000fd5b7f4e487b7100000000000000000000000000000000000000000000000000000000600052601260045260246000fd5b7f4e487b7100000000000000000000000000000000000000000000000000000000600052602260045260246000fd5b600080fd5b6000601f19601f8301169050919050565b7f4e6f7420656e6f75676820746f6b656e73000000000000000000000000000000600082015250565b610b69816109e7565b8114610b7457600080fd5b50565b610b8081610a25565b8114610b8b57600080fd5b5056fea26469706673582212201b02acaa127c2be195701e604c51705be887e3850c60d28de738fac8339b6af364736f6c63430008070033",
  "linkReferences": {},
  "deployedLinkReferences": {}
}